S01100006275696C642F6D61696E2E733139FF
S31508000000005000204543000831430008E532000847
S31508000010DD320008D5320008CD3200083143000829
S3150800002031430008314300083143000831430008D2
S3150800003031430008314300083143000845250008CC
S3150800004031430008012800083143000831430008FD
S3150800005031430008314300083143000831430008A2
S31508000060314300083143000831430008D13A0008FB
S315080000703143000831430008F135000831430008D0
S315080000803143000831430008314300083143000872
S315080000903143000831430008314300089934000809
S315080000A03143000831430008314300083143000852
S315080000B0BD380008314300083143000831430008C1
S315080000C03143000831430008314300083143000832
S315080000D03143000831430008314300083143000822
S315080000E03143000831430008314300083143000812
S315080000F03143000831430008314300083143000802
S3150800010031430008314300083143000831430008F1
S3150800011031430008314300083143000831430008E1
S3150800012031430008314300083143000831430008D1
S309080001305FF808F16D
S3150800013810B501214FF0C05007F054FF1049114C73
S315080001480B681148002243F480730B602280012152
S3150800015802800E4C1D2007F037FF01210C4807F0D6
S315080001686BFE2046082103F085FA2046102103F085
S3150800017881FA0848D0F800D04068004710BD00BF8B
S3150800018800700040086C0040106C0040000C0140EC
S315080001980002300000F0FF1FF8B54AF2ED574DF699
S315080001A8CE6501214FF0C05007F01CFF064A074EDE
S315080001B81368074C0749084843F480731360378067
S315080001C82580C860F8BD00BF00700040086C004074
S315080001D8106C004000ED00E00400FA0510B5404A2E
S315080001E8404B11881B8802F11F42A2F54712A2F25A
S315080001F8236243EA0143934282B06DD03A4B012108
S315080002085A6A1C2042F480225A625A6A002442F426
S3150800021800325A625A6A42F480325A6207F0D4FEA9
S3150800022801214FF4006007F0CFFE0121084607F0C8
S31508000238D9FE0121022007F0D5FE0121042007F086
S31508000248D1FE01214FF4007007F0BEFE01214FF4DC
S31508000258806007F0B9FE0121084607F0B5FE0121BE
S31508000268084607F0A3FE0121022007F09FFE012198
S315080002784FF4804007F0A8FE01214FF0007007F000
S31508000288B1FE01214FF0C05007F0ACFE4FF6FF73E0
S3150800029801A91648ADF804308DF8074007F062FD45
S315080002A801A9134807F05EFD01A9124807F05AFD8F
S315080002B80121114807F0C0FD4FF4004007F01EFE63
S315080002C807F0B8FE204607F013FE212007F098FE2F
S315080002D80128FAD002B010BDFFF72AFF8EE700BF43
S315080002E8106C0040086C004000ED00E00008014072
S315080002F8000C0140001001400002300008B503F068
S3150800030867FD00F01BFF02F091FABDE8084003F00C
S3150800031887B900BF38B5124B04461B5C692B13D046
S31508000328752B06D00F4B43F82010FFF7E7FF01207F
S3150800033838BD0D4B08461D6809F0F2F845F8240043
S31508000348FFF7DCFF012038BD084B08461D6809F091
S31508000358C1F845F82400FFF7D1FF012038BD00BFD2
S3150800036868950008F0090020C800002094010020BC
S31508000378312801D8FFF7CEBF0020704770B506466A
S31508000388094D002402E00134322C09D010223146E6
S3150800039855F8040F04F0DAF80028F4D1204670BDA1
S315080003A84FF0FF3070BD00BFFCFFFF1F2DE9F04777
S315080003B840F29E7C40F6980A46F2A81940F2EE28C2
S315080003C840F6CA0E40F24C4741F664163E4A3F4B81
S315080003D83F49126819604FF4613191604FF4006122
S315080003E8D1603C4D0A2111613B4C002151603B48C4
S315080003F85D613B4D9C613B4CD8611D623A483B4D5B
S315080004085C623B4C9862DD623A48142515635C6366
S31508000418394C98633948DC63394C58644B201C645A
S3150800042890643020D0640020186555650E259565BA
S315080004384FF47A75C2F85CA0C2F86090C2F8648076
S315080004489566C2F870E05767DFF8CCE04FF07E573C
S31508000458C2F86CC096672B4ED1672B4DC3F88C70C3
S315080004684FF41677C3F88040C3F88800C3F884E0C9
S315080004784FF07C54C2F89070C3F894604FF47A56DB
S31508000488C2F89C60C2F89810C2F8A0102D68C3F884
S31508000498A8401E4F1E4E1F4CC3F8A400C3F8B4004C
S315080004A84FF0834E0120C3F8ACE0C3F8B070C3F828
S315080004B8B860C3F8BC40C2F8C010C5F8C400BDE8A7
S315080004C8F047FFF71BBF00BFC8000020F00900204F
S315080004D885EB014058033334A5BBC4B94CC34B401C
S315080004E8B234593AA7BF64418E8B6139E25863C161
S315080004F80000484200803B460000F041CDCC8C3FC6
S31508000508000020416666663F94010020CDCC4C3D2C
S3150800051800007A440000B4439A99193EF8B540F2A7
S31508000528E73001F0DFFE0746012007F0E1FC01E0AD
S3150800053801F0D6FE212007F063FD0128F8D107F05F
S3150800054885FB342007F08EFB134807F0EBFB0428DD
S3150800055811D0002407F084FB01F0C2FE002007F042
S31508000568C7FC212007F04CFD0128FAD0384601F0CF
S31508000578B9FE2046F8BD094D074C094E01E0B442BC
S3150800058808D0204655F8041B07F098FB042804F100
S315080005980404F4D00124DDE700FC0008F009002073
S315080005A8C8FC000838B50B4D0B4CFFF7FFFE28684A
S315080005B8216808F065FF18B9BDE83840FFF7AEBFEF
S315080005C829462046C82204F00DF8BDE83840FFF74A
S315080005D895BE00BF00FC0008F009002008B5C8222F
S315080005E80349044803F0FEFFBDE80840FFF786BE46
S315080005F800FC0008F00900202DE9F8431E4DDFF835
S3150800060888900024204608F031FD1C4908F086FD2C
S31508000618074606F01BF906461949384608F07EFDCE
S3150800062806F014F9174908F079FD314608F06EFC0A
S315080006380646134806F048F98046D9F8000008F037
S3150800064815FD4FF07C5108F069FD414607464FF005
S31508000658804008F017FE0146384608F05FFD314627
S3150800066808F05CFD08F036FF0134B4F5806F25F80C
S31508000678020FC7D1BDE8F883D20A0020DB0FC93BB1
S3150800068800004040ABAA2A3EEC1200202DE9F843A8
S31508000698594B5A4E1B785A4D042B5A4C5A485B49A3
S315080006A85B4A08D0002333602B60236003600B6025
S315080006B81360BDE8F8830123564F33602B60236027
S315080006C803600B601360D7F80080534B534E1868C5
S315080006D8414608F019FCD6F8B01008F01FFD504B33
S315080006E805461C68214608F0D5FE002878D04D4DE9
S315080006F82046296808F008FCD6F8B41008F00EFD5C
S3150800070841468146204608F001FC0146484608F05D
S31508000718FDFB454938602C6008F000FD08F0DAFE54
S31508000728031E07DADA4322F47F7222F0030203F57E
S31508000738806313443D4AC3F3090410683C4D4008D6
S3150800074808F094FC3B490746D6F8AC0008F0E6FCE6
S31508000758064635F9140008F08DFC314608F0DEFC2B
S31508000768394608F0D3FB08F0DBFE04F25514C4F347
S3150800077809041FFA80F835F9140008F07BFC31469D
S3150800078808F0CCFC394608F0C1FB08F0C9FE04F2AB
S315080007985514C4F309041FFA80F935F9140008F04A
S315080007A869FC314608F0BAFC394608F0AFFB08F090
S315080007B8B7FE80B2204D214B00F1120209F1120151
S315080007C808F1120492B289B2A4B2A5F83480A5F841
S315080007D83890A8871C879987A3F84020BDE8F8832E
S315080007E804F10049494628462C4608F049FE0028DF
S315080007F87FF47DAF4C467AE7041400207C0021423A
S315080008080C8021421C8021426C8021427C80214236
S315080008188C8021423C080020BC0A0020F0090020F0
S31508000828D00A002038080020610B3640EC12002058
S31508000838D40A00200AD7233C0008004000040040D8
S3150800084838B50546074B084C1B68986D08F00EFC2A
S31508000858294608F063FC4FF07C5108F05FFC2060DD
S3150800086838BD00BFC8000020BC0A002010B40A4CD6
S3150800087840B90A490A4A0B4B20600860106018708C
S3150800088810BC704705480649064A012323600360D9
S315080008980B60137010BC70477C0021420C80214203
S315080008A81C802142F21200200D4B1A7802F0FF0331
S315080008B802B183B20B4A0C499386138793870B7840
S315080008C863B10A4A0A4B126800EBD200904228BF65
S315080008D8104680B218879887A3F84000704700BF6B
S315080008E80414002000080040F0120020EC12002032
S315080008F800040040034B044A1B68984228BF184660
S3150800090810607047EC120020CC0A002038B504465F
S3150800091872B602F0CBFE214B186062B6204B1B78E4
S315080009282344DBB2062B03D8002B2FD1062300E07D
S3150800093801231C4A1C4952F824001C4D1C4A2B70DA
S31508000948086052F824101B4A1B4B116053F82410F0
S315080009581A4B11611B7853B1194A1A4D92F900308E
S3150800096819481A49A3B92B6003600B601370184B12
S31508000978184A53F82410184B116153F82410174BCA
S31508000988174A196152F824201A6138BD5BB2D0E7B4
S3150800099801232B6003600B601370E8E7C80A002080
S315080009A8B80A0020980100206C802142D61200203F
S315080009B8D00100207C80214208020020F012002085
S315080009C8F21200207C0021420C8021421C80214220
S315080009D8B401002000080140EC010020000C014089
S315080009E82402002091490B780BB1002070472DE9A5
S315080009F8F04F03F0FF0489B020460291FFF786FFFF
S31508000A088B4B8C4D4FF4000BC3F810B04FF4803362
S31508000A182B614FF400332B614FF480032B61DFF809
S31508000A2830A24FF080734FF47A70C5F810B02B6176
S31508000A3802F05AFE804EDAF8002031687F4BA2EBA6
S31508000A48121292B200914FF0020E9A8601271A875F
S31508000A58DFF800829A878022019303F580331A61AA
S31508000A6842F210702F61C5F810E002F03DFEC8F892
S31508000A7800704FF47A7002F037FE3368DFF8D891C1
S31508000A88059342F21070C8F8004002F02DFE4FF4A4
S31508000A987A70C9F8007002F027FE336842F21070BF
S31508000AA80693C9F8004002F01FFEC8F820704FF4F4
S31508000AB87A7002F019FE336842F210700793C8F884
S31508000AC8204002F011FE5A4B5D4AC3F810B04FF4A5
S31508000AD880332B614FF400332B61DAF80000594B49
S31508000AE8C0F30F1010871C6003F5FF431033908777
S31508000AF81C60A2F84000039242F2107049F8604C54
S31508000B0802F0F2FD4FF4807E8023402028612B6195
S31508000B1842F21070C5F810E002F0E6FD494B4FF4B2
S31508000B287A701F6002F0E0FD464B0099D6F80080FF
S31508000B3842F210701C60C1EB080802F0D5FD424B62
S31508000B484FF47A701F6002F0CFFD336842F21070D6
S31508000B5804933D4B4FEA28481C6002F0C5FD4FF444
S31508000B687A7049F8607C02F0BFFD366842F2107068
S31508000B7849F8604C02F0B8FD2D4B3448C3F810B05C
S31508000B88304B1C604FF480332B612F4B1C604FF49D
S31508000B9800332B614FF4800349F8604C2B614FF002
S31508000BA88073C5F810B02B610299019B09789C8659
S31508000BB81C879C8703785BB1DAF80010039ACB0880
S31508000BC88B4228BF0B469BB213879387A2F84030FF
S31508000BD80020FFF79BFEB8F1310F03DC022009B0AD
S31508000BE8BDE8F08F049B009A9B1AB3F5481F01DAF3
S31508000BF80320F4E7B61AB6F5481F01DA0420EEE72B
S31508000C08059B9B1AB3F5481F01DA0520E7E7069BFB
S31508000C189B1AB3F5481F01DA0620E0E7079B9B1ADB
S31508000C28B3F5481FB4BF07200120D8E704140020ED
S31508000C3800080140000C014060250020000800401B
S31508000C48000400407C0021420C802142F01200205A
S31508000C58EC1200206C8021427C8021422DE9F84361
S31508000C68064600200F46FFF751FE40F2E73001F02E
S31508000C7839FB814672B607B3134C00254FF0400876
S31508000C8801F02EFB0820C4F8108002F02DFD4FF461
S31508000C9880032361304602F027FD01F021FB022379
S31508000CA82361082002F020FD4FF080730135236187
S31508000CB8304602F019FDBD42E2D162B64846BDE8A3
S31508000CC8F84301F00FBB00BF000C014010B50446FD
S31508000CD80B4B187840B2FFF719FE002CA8BF23461D
S31508000CE847F6FF70B8BFE31C04EBA30398422246F5
S31508000CF8BDE81040A8BF1846024902F0B7BD00BFB4
S31508000D08D6120020D50C000870B51B4C2378022B88
S31508000D1811D01A4D1A4B29781B785BB299420BD019
S31508000D281849194A0B68194801330B6013680021DA
S31508000D3801331360016070BD064602F0FBFC287893
S31508000D48FFF7E4FD114B1A6801321A601B68052B78
S31508000D5802D90C4B00221A602378074A042B02D0C2
S31508000D681378032BE7D1324606EB56000849BDE847
S31508000D78704002F07BBD00BF04140020F112002069
S31508000D88D6120020D8120020C00A0020E01200203F
S31508000D98D50C000838B50D490D4A0E4D0E480024E5
S31508000DA80E4B2C8004600C60146018780C4B40B20B
S31508000DB81C70FFF7ABFD0B4B2246204602241C701D
S31508000DC80949BDE8384002F051BD00BF0C802142F0
S31508000DD81C802142E41200207C002142D612002001
S31508000DE8F212002004140020150F0008F8B5304E3A
S31508000DF8304D314F314A002331493B6033602B600F
S31508000E0804461370486C2F4908F088F92E4B064695
S31508000E18186808F02BF90146304608F033FA2B4DC6
S31508000E280646286808F022F90146304608F076F999
S31508000E3808F076FB264B274E1B683060580802F0E8
S31508000E4839FE254B326825481E68254B2549066014
S31508000E581A601A68097839B393B2234923488B86E6
S31508000E680B878B87037863B12B68A1F5806102EB42
S31508000E78D3029A4228BF1A4693B20B878B87A1F8E2
S31508000E8840301B4F1B4E1C4D1C491D4A002064B29E
S31508000E981C4B386030602860086014701A681A4954
S31508000EA8BDE8F84002F0E2BC01F0FF03D5E700BF51
S31508000EB80C8021421C8021427C002142F21200202B
S31508000EC8F009002000007A4490130020EC12002054
S31508000ED840250020E8120020242500204825002067
S31508000EE8CC0A00200414002000080040F012002054
S31508000EF86C250020E0120020D8120020C00A002025
S31508000F08D612002070250020D50C00082DE9F041DE
S31508000F18754F764C3A68B4F90030D2F89050AB421F
S31508000F2869D3D2F89820A9188B4256D2AB4200F05A
S31508000F38CD8006466E4D6F4B187840B2FFF7E6FC33
S31508000F486D4B6E49686C1D6808F0E8F86C4B80466E
S31508000F58186808F08BF80146404608F093F9804669
S31508000F68284608F083F80146404608F0D7F808F0FE
S31508000F78D7FA644B64491860644A1B680978106094
S31508000F8801F0FF02002940F08580614961488A8698
S31508000F980A878A87027852B103EBD503AB4228BF82
S31508000FA82B465D4A98B210879087A2F840003B689E
S31508000FB83046D3F8A020D3F89C30A6EB4202B2EB11
S31508000FC8430F38BF554B564938BF1A6802F04EFCCE
S31508000FD8238801332380BDE8F081002A5ED14A4A76
S31508000FE8444B032111701878FFF700FF2388013353
S31508000FF82380BDE8F081404A1846166808F03AF892
S315080010083E4908F08BF80746284608F02FF80146A7
S31508001018384608F037F9364BD3F8941008F07EF8B6
S31508001028374B0546186808F021F80146284608F09F
S3150800103829F90546304608F019F80146284608F001
S315080010486DF808F06DFA2F4B2F4918602F4A1B6860
S315080010580978106001F0FF02F1B92D492D488A86F2
S315080010680A878A87027852B103EBD603B34228BFA8
S315080010783346294A98B210879087A2F840004FF459
S31508001088FA621046264902F0F1FB238801332380C9
S31508001098BDE8F0819AB278E79AB2DEE72149224894
S315080010A8224E234D0023134A33602B6003600B60DE
S315080010B8107840B2FFF72AFC02F030FB124B0322E5
S315080010C81A70238801332380BDE8F081084DA96B7F
S315080010D8084607F01BFF08F0FDF9164A164B126872
S315080010E806461A6027E700BFC8000020E412002059
S315080010F8F0090020D6120020EC12002000007A44DD
S3150800110890130020CC0A002004140020E8120020BE
S3150800111800080040F0120020000400407025002056
S31508001128150F0008C00A0020D81200206C250020D8
S31508001138E012002024250020482500202DE9F04F3C
S31508001148DFF8C4A1624FDAF800208BB0D2F85480D1
S315080011587B6CB8F1400F966CD56CD46FD7F8B890FD
S3150800116808D8B8F1030F00F2A4804FF4FA5B4FF0E1
S31508001178040803E04FF4FA3B4FF04008184655496F
S31508001188019308F07DF9019B00B9524B524918465C
S31508001198029308F06BF908B94F4B0293B6F5007F2E
S315080011A877D8002E40F082800126B5F5007F039691
S315080011B875D94FF400750495231C18BF012300211F
S315080011C84846019308F052F900287DD1434A444B12
S315080011D8146807A86408B4FBFBF41C60013C07F014
S315080011E88BF8A4B2202207A93E484FF0010BADF8A8
S315080011F81E200592ADF82040ADF81CB006F022FF77
S3150800120807A807F079F8059A07A93748ADF82040DE
S31508001218ADF81E20ADF81CB006F014FF324B0022BC
S315080012289A84A3F580639A84BDF80CE02F4B30495D
S31508001238A3F800E0BDF810302E4A0B80DAF8004013
S315080012489DF80430A06D137007F010FF2A4907F0BF
S3150800125865FF494607F062FF284A29491268086067
S31508001268D2F8C410002929DB5946264880F800B068
S31508001278029BC4F854807B64019BA664E564E36713
S31508001288C7F8B890C2F8C410FFF7B6F90BB0BDE8AE
S31508001298F08F4FF400760396B5F5007F89D815B90F
S315080012A80125049588E7ABB2049385E7B3B203939F
S315080012B8F2E74FF4FA6B0BFB08FB5FE7114BFF21CC
S315080012C819704FF0FF31D3E7DFF840907EE700BF8B
S315080012D8F0090020CDCCCC3D00004040800200201B
S315080012E8EC1200200004004000080040DC12002030
S315080012F8D4120020F01200206F12833994010020BE
S31508001308D00A0020B80A0020C80000200000B4430C
S315080013182DE9F04F89B0FFF711FF724B724C1A6826
S31508001328DFF8D8A1714B10254FF000084FF0800957
S3150800133803A94FF0030B6E480127CAF800208DF859
S315080013480F5083F800808DF80EB0ADF80C9006F0B3
S3150800135809FD03A920468DF80F50ADF80C70022632
S3150800136806F000FD03A920468DF80F50ADF80C606D
S3150800137806F0F8FC4FF0400303A92046ADF80C30F8
S315080013888DF80F5006F0EEFC03A920468DF80F508D
S31508001398ADF80C9006F0E6FC4FF4807303A92046D6
S315080013A88DF80F50ADF80C3006F0DCFC4FF400024F
S315080013B84FF080734FF4800121614FF40050226189
S315080013C83946236106F0F6FA39464FF48050494DF6
S315080013D806F0F0FA04A806F099FFDAF80020602368
S315080013E804A92846ADF81620ADF810300193ADF8D3
S315080013F81860ADF8127006F0BFFE2846082106F0F8
S31508001408B3FF04A9284606F0FDFE2846082106F07B
S31508001418B5FF04A9284606F039FF2846082106F02C
S31508001428B5FF39462846344E06F088FF04A806F064
S315080014386DFFDAF80020019B04A93046ADF816209E
S31508001448ADF81030ADF81270ADF8188006F04CFEFD
S315080014583046082106F080FF04A9304606F08CFEBF
S315080014683046082106F080FF04A9304606F0CAFE71
S315080014783046082106F082FF3946304606F05EFFF8
S315080014883946304606F04CFF3946284606F048FFE6
S315080014984FF04003A6F824801827A5F8248003A946
S315080014A82046ADF80C308DF80EB08DF80F7006F0A2
S315080014B859FC03A92046ADF80C908DF80F7006F074
S315080014C851FC4FF4807303A92046ADF80C308DF80B
S315080014D80F7006F047FC4046FFF718FA09B0BDE852
S315080014E8F08F00BFEC120020000C0140F11200201A
S315080014F8000801400004004000080040CC0A00200B
S3150800150810B5054C054A2046054903F0C1FE204694
S31508001518BDE8104001F03EBF08130020F81200206D
S31508001528B899000870B50E4C0E4801F033FF0E4DF9
S315080015380E4804F1E40603E054F80C0C54F8085C69
S3150800154801F028FF202001F0E9FE284601F022FFD5
S315080015580C34074801F01EFFB442EDD170BD00BF38
S31508001568D4980008CC990008509E0008C899000825
S31508001578589B000838B50C680568204603F004F837
S31508001588214602462846BDE8384002F0DFBF00BFBC
S315080015982DE9F043DFF8789283B0D9F8000007F010
S315080015A865FDDFF870820446D8F8000007F05EFD8E
S315080015B80146204607F066FE6F4A704B11780446C6
S315080015C853F821306E4A6F496F4803F061FE6E483A
S315080015D801F0E0FE6D4A6E4B11786B4853F82130DE
S315080015E86C4A684903F054FE674801F0D3FE6A4A14
S315080015F86A4B1178644853F82130694A614903F0FF
S3150800160847FE614801F0C6FE664A674B11686422C0
S31508001618A3FB01035B0902FB13125B4863490092AB
S31508001628634A03F035FE584801F0B4FE614B624D33
S315080016381868624E400807F019FD07F0DBF8604A9B
S31508001648CDE900015F49504803F022FE4E4801F0F3
S31508001658A1FE5D4B5D4A1B685D494B4803F018FEC1
S31508001668494801F097FE20465A4907F057FD07F002
S31508001678C1F8594ACDE900015249434803F008FE22
S31508001688414801F087FE554B4FF47A74186807F0FD
S31508001698B1F8534ACDE900014A493B4803F0F8FD39
S315080016A8394801F077FE4F4B186807F0A3F84E4AF9
S315080016B8CDE900014349344803F0EAFD324801F010
S315080016C869FE4A4B18680028BCBF00F57F40FF3002
S315080016D8000C02F09BFD464A03463A492A4803F09D
S315080016E8D7FD294801F056FE424B186807F082F8DC
S315080016F8414ACDE900013349234803F0C9FD224888
S3150800170801F048FE3D4B20481F68A5FB07239B09A7
S3150800171804FB13720332A6FB0212D208009223496D
S31508001728374A03F0B5FD184801F034FED9F80030F9
S31508001738D8F8002003FB07F7B7FBF2F7A5FB072342
S315080017489B0904FB1374A6FB0424E4082D4A1749CD
S3150800175800940D4803F09CFD0B4801F01BFE2A4B2C
S315080017682A4A1B781A49084803F092FD064803B026
S31508001778BDE8F04301F00EBE0C1400205402002008
S31508001788E4990008F099000808130020741300204B
S3150800179840020020FC990008041400206C0200206E
S315080017A8089A0008701300201F85EB51249A000830
S315080017B8149A000870250020D34D6210CDCCCCCCE5
S315080017C8349A0008409A0008C00A0020509A00086F
S315080017D85C9A00080000C842689A0008AC13002002
S315080017E8749A000898130020789A00086025002043
S315080017F8849A0008A4130020909A000890130020E1
S315080018089C9A0008A89A0008B4130020B49A0008FD
S31508001818C40A0020EC12002008B50A4B1B78012BD5
S3150800182805D9094B1868BDE8084001F0B3BD074853
S3150800183801F0B0FD0649074B0020012208601A701E
S3150800184808BD00BF0414002068020020C09A0008DA
S31508001858F4120020841300200F4B1B78C3B910B567
S3150800186803F0FF04FFF7BEF80238C0B205280CD803
S315080018780A4A0B4B52F820200A490B4803F008FD80
S31508001888BDE81040084801F085BD2246074BF3E736
S31508001898074801F07FBD00BF04140020B09800086F
S315080018A8F09A0008109B000808130020E49A00081C
S315080018B8F89A000808B5094B1B7853B9084801F087
S315080018C869FD4FF6FF7001F00FFFBDE80840FEF707
S315080018D863BC0448BDE8084001F05CBD0414002058
S315080018E8389B00081C9B000808B50B4B1A7872B180
S315080018F81B78012B04D9BDE80840084801F04ABD01
S3150800190800F04AFDBDE80840054801F043BD054812
S31508001918BDE8084001F03EBD04140020789B000885
S31508001928909B00085C9B000838B50346074C084A94
S31508001938084D52F82020084920462B7003F0A8FCC9
S315080019482046BDE8384001F025BD00BF0813002031
S31508001958540200200C140020A09B000808B50D4B63
S315080019681B788BB90C4B1B78032B06D00B4B1B78B3
S31508001978012B02D00120FFF7D7FF00F0D1FCBDE804
S315080019880840074801F006BD0648BDE8084001F0CA
S3150800199801BD00BF04140020741300200C14002095
S315080019A8CC9B0008B89B000808B5052000F09CFCED
S315080019B8054B1B78012B02D00120FFF7B5FFBDE8C0
S315080019C80840024801F0E6BC0C140020D89B000821
S315080019D808B50C4B1B78012B0DD900F0FDFC0A4BFA
S315080019E81B78012B02D00120FFF79EFFBDE80840AF
S315080019F8064801F0CFBC064B1868BDE8084001F058
S31508001A08C9BC00BF041400200C140020E89B000879
S31508001A185002002010B50446084801F0BBFC2068AF
S31508001A2801F0B8FC202001F079FC606801F0B2FCEE
S31508001A38BDE81040024801F0ADBC00BFF89B00089D
S31508001A48589B000810B51A4B82B01B78012B05D98C
S31508001A58184B186801F09EFC02B010BD04460DF13B
S31508001A680603084601AA144904F0D6FD022812D12D
S31508001A7841F27E32BDF80400A0F10A039BB29342F4
S31508001A8812D8BDF806104B1EB3F57A7F08D2FFF7B1
S31508001A98E5F802B010BD2046FFF7BCFF02B010BD3E
S31508001AA8064801F077FCD7E7054801F073FCD3E749
S31508001AB80414002068020020009C0008309C0008D6
S31508001AC8089C000810B51F4B82B01B78012B05D956
S31508001AD81D4B186801F05EFC02B010BD04466A4644
S31508001AE808461A4904F098FD012804D02046FFF74D
S31508001AF891FF02B010BD1649684602F00DFD88B17F
S31508001B081449684602F008FD90B16846124902F081
S31508001B1803FD0028EAD1FEF701FD78B10F4801F068
S31508001B2839FCD9E7FEF742FC0D4801F033FCD3E748
S31508001B38FEF754FD0B4801F02DFCCDE70A4801F0E5
S31508001B4829FCC9E70414002068020020549C0008F0
S31508001B58589C00087C9C00089C9C0008A49C0008CB
S31508001B68609C0008849C0008BC9C000810B51E4BA5
S31508001B7882B01B78032B2DD9044601AA08461B49AF
S31508001B8804F04AFD012804D02046FFF743FF02B0B7
S31508001B9810BD019800F028FC10B3154B186807F01B
S31508001BA865FA144B0446186807F060FA0146204699
S31508001BB807F068FB104907F0B1FA06F01BFE024663
S31508001BC80B460E480E4903F063FB0C4801F0E2FB8E
S31508001BD802B010BD0B4B186801F0DCFB02B010BD53
S31508001BE8094801F0D7FBD2E7041400209C950008A1
S31508001BF8CC0A0020EC1200200000C8420813002076
S31508001C08FC9C000850020020DC9C000810B5194B03
S31508001C1882B01B78032B15D9174B1B78032B04D0D6
S31508001C28164801F0B7FB02B010BD044601AA0846DB
S31508001C38134904F0F1FC01280AD02046FFF7EAFE0A
S31508001C4802B010BD0F4B186801F0A4FB02B010BD16
S31508001C580198FEF7F5FD019806F0CCFD02460B46FD
S31508001C6809480A4903F014FB074801F093FB02B038
S31508001C7810BD00BF0414002074130020189D000826
S31508001C889C95000850020020081300203C9D000877
S31508001C9830B5214B83B01B78032B2ED9054601AAEC
S31508001CA808461E4904F0B8FC0128044620D11C4BF6
S31508001CB80021586907F0C6FB28BB42F2AC62019BB3
S31508001CC8A3F16401914222D8164D2A78012A03D035
S31508001CD800F0B6FB019B2C70134C1A46134914489E
S31508001CE8236003F0D5FA124801F054FB03B030BD5F
S31508001CF82846FFF78FFE03B030BD0E4B186801F073
S31508001D0849FB03B030BD0C4801F044FBF3E70B4828
S31508001D1801F040FBEFE700BF04140020A095000877
S31508001D28F009002074130020941300209C9D0008D5
S31508001D380813002050020020549D0008789D0008CA
S31508001D4810B582B004460DF106020846134904F098
S31508001D5863FC012808D1BDF80630642B09D86BB98D
S31508001D680F4A136002B010BD2046FFF753FE02B0B3
S31508001D7810BD0C4801F00EFB02B010BD4FF4FA6214
S31508001D8892FBF3F3064A0848136001F003FB074879
S31508001D9801F000FB0A2001F0C1FAE3E7049C0008F9
S31508001DA8F4120020B09D0008ACA00008B0990008FD
S31508001DB82DE9F04383B00F46804601AA084618491C
S31508001DC804F02AFC012811D1DFF8649000244E4655
S31508001DD856F8045B284602F0D7FB01A902462846AE
S31508001DE802F0B4FB40B10134042CF1D14046FFF7A8
S31508001DF811FE03B0BDE8F08339464046FFF7D4FD27
S31508001E08084B59F824200849E4B208481C7003F01E
S31508001E183FFA064801F0BEFA03B0BDE8F08300BFF2
S31508001E28D49D000874130020DC9D000808130020C0
S31508001E3840020020F0B583B00E46074601AA0846B8
S31508001E48114904F0E9FB01280BD1104D002403229F
S31508001E5801A955F8040B02F079FB38B10134052CB1
S31508001E68F5D13846FFF7D6FD03B0F0BD38463146FA
S31508001E78FFF79AFD064BE0B21B789842F4D0FFF7B5
S31508001E8853FD03B0F0BD00BFF49D000854020020BE
S31508001E980C14002038B50446184B194953F8202065
S31508001EA8184803F0F5F9174801F074FA164B1B5D44
S31508001EB8692B21D0752B0AD1144B154A1B6852F881
S31508001EC82410104853F8242003F0E2F90CE0114BCB
S31508001ED80F4D53F8240006F08DFC02460B460948B8
S31508001EE855F8241003F0D4F9064801F053FABDE86A
S31508001EF83840094801F04EBA084BDEE700000020D2
S31508001F08F89D00080813002068950008C8000020F6
S31508001F18CC000020F0090020589B000894010020F6
S31508001F2870B58AB00D46064602AA0846244904F042
S31508001F3873FB012804D03046FFF76CFD0AB070BD64
S31508001F480446204902A802F0E7FA38B920460134BF
S31508001F58FFF7A0FF322CF9D10AB070BD02A8FEF728
S31508001F680DFA041E1BDB02A802F00EFB01302844FA
S31508001F7801AA154904F050FB012803D02046FFF7AB
S31508001F8889FFDBE7114B1B78012B11D9104B114838
S31508001F98196803F07DF90F4801F0FCF9CEE702AAA3
S31508001FA80D490C4803F074F90A4801F0F3F9C5E736
S31508001FB801992046FEF7DCF92046FFF76BFFBDE7D7
S31508001FC8049E00080C9E00089C950008041400202E
S31508001FD86802002008130020149E00082DE9F04125
S31508001FE807468846124D134E002401E055F80C6C36
S31508001FF842463146384602F0A9FA0C35013420B172
S31508002008132CF3D10020BDE8F081132C02D13046F9
S31508002018BDE8F081084B04EB44044246384653F8B9
S31508002028241002F093FA0028ECD03046BDE8F08177
S31508002038D4980008C8990008C898000808B506483A
S3150800204801F0A8F920220021044802F007FB044BF6
S3150800205800221A6008BD00BF349E000848130020F5
S31508002068681300202DE9F043704D87B02B6843B1FB
S315080020786F4A1268B2FBF3F403FB1424002C00F031
S31508002088AA806C4C6C4D274601F060F9F0B101F056
S315080020986BF92368C0B25A1C202AE8542260654E98
S315080020A847D01AB10A2814D00D2812D0092863D0A7
S315080020B803283BD07F2846D0A0F120035E2B3BD8C7
S315080020C801F02CF901F042F90028E0D107B0BDE883
S315080020D8F0831346012B29DD584801F05BF9584867
S315080020E801F058F92368574A4FF0000E05EB030C20
S315080020F80C230092544913220DEB03000CF801EC4B
S315080021080395CDF810E0CDF814E002F049FA8046B8
S31508002118002854D00068D8F8089002F035FA29182B
S315080021284046C847494B1B78002B4FD1FFF786FF17
S31508002138AAE73B60002BCDD1072001F0EFF823680A
S31508002148013B2360A0E7012AFBDD2B440022404817
S3150800215803F8012C01F01EF9374801F01BF9202075
S3150800216801F0DCF83A4801F015F9334801F012F99C
S315080021782368023B236087E7002219462E48236016
S31508002188EA54FFF72BFF064600283FF47DAF02F016
S31508002198FBF90346314602462748236002F022FA2D
S315080021A8236820215A1C2A48E954226001F0F2F8CB
S315080021B8214801F0EFF8274801F0ECF864E72648CB
S315080021C801F0E8F8214B1B78002BAFD000233360C9
S315080021D807B0BDE8F083214A214B10681B68214ED9
S315080021E8C01A06F047FF204B196806F097FF3060BB
S315080021F81E4801F0CFF82B684FF4FA6292FBF3F207
S315080022081B491C4803F044F81A4801F0C3F81A4950
S315080022182046FFF7BDF9194801F0BCF8064801F051
S31508002228B9F80C4801F0B6F82BE700BFF4120020FD
S315080022388C1300206813002048130020589B0008B8
S31508002248AC9900087D150008C89800088413002072
S315080022586C9E0008A8A00008589E00086C25002057
S3150800226844250020A413002054250020ACA000080B
S315080022783C9E000808130020509E0008549E00083B
S3150800228838B50F4801F086F80E4801F083F801F0D2
S3150800229809FA0D4D0D4C03460D4A28460D4902F01C
S315080022A8F7FF2A460C49204602F0F2FF204601F0BD
S315080022B871F80A4801F06EF8BDE83840FFF7BEBE67
S315080022C8ACA00008B0990008F812002008130020EE
S315080022D8709E0008789E0008B8990008809E000835
S315080022E8704700BF0020704738B50546094C0020DE
S315080022F8FEF700FB01F01EFA074B002220460821CC
S315080023081A7005F095FD2046102105F093FD034B3C
S315080023181D7038BD000C014004140020B4130020B9
S3150800232838B50020FEF7E6FA174D01F003FA102132
S31508002338164805F07DFD0821144805F07BFD2B7825
S31508002348032B1CD0124A0121124B11701B7800204E
S315080023588B4204BF00232B70FEF788FA2B780024DB
S315080023684FF416719620FEF779FC42F2107001F0C8
S31508002378BBF92B7801340133A342F1D838BD044B95
S3150800238804221A70EAE700BF74130020000C014003
S31508002398041400200C1400200C4B1A78012A00D0CB
S315080023A8704710B40A4A0B4812680024D2F89010ED
S315080023B8046011B9D2F8980010B110BCFEF7EABC4F
S315080023C803221A7010BCFEF711BD00BF04140020C2
S315080023D8C8000020400800200023024A1846137047
S315080023E8FEF788BA7413002010B50021044607F0D2
S315080023F847F8B0B10E4A002318461370FEF736FAA6
S315080024080C4B186806F032FE0B4906F087FE214683
S3150800241806F084FE07F084F880B2FEF76BFA01200E
S3150800242810BD0649204607F021F80028E2D110BD5C
S3150800243874130020EC1200200AD7233C0000C84277
S31508002448014B00221A60704740080020F8B5204F53
S31508002458204B3E681B68091A03FB01661E4A1F4B78
S315080024681268002E3E6002FB01F5B3F9004025DB31
S315080024782204B242AEBF33143A60131405F31E029F
S3150800248813EBE23318D49C42A8BF1C46144B1B789E
S315080024985BB1B0F5967F0ADB11F1630F12DB114BBE
S315080024A893F900300BB1183101DA2046F8BD00203F
S315080024B8FEF7DCF92046F8BD0024E7E700223A6073
S315080024C81346DBE70120FEF7D1F92046F8BD00BF21
S315080024D84008002088130020A8130020EC120020CA
S315080024E8F0120020F212002030B54FF4803085B083
S315080024F805F09AFB08234FF480320DEB03000025FC
S31508002508012402928DF80D308DF80C508DF80E4086
S3150800251805F036FB01A88DF804408DF805508DF8AE
S3150800252806508DF8074005F021F9284605F0D6FC2F
S31508002538204605F0CDFC05B030BD00BF2DE9F843AF
S315080025488B4BDFF8AC8218688A4F000C01F048FEFE
S31508002558D8F8002088493B680860D01A06F08AFD32
S31508002568864B874E196806F0D9FD3378854A032BBA
S31508002578106000F0BC8072B6834A844B12681B68E8
S3150800258862B6834D2978032900F0B98029788048EE
S31508002598002940F085800378002B40F0AC807D4CFC
S315080025A87D4A2368C821A2FB0302920901FB12335C
S315080025B8002B00F0C680DFF83C822B78032B40F20C
S315080025C89280764A7649774B1068D1F800904FF092
S315080025D88E411F6806F0A2FD0546484606F04AFDE4
S315080025E80146284606F04EFE394681464FF07E508B
S315080025F806F08AFC0146484606F090FD6A4D814673
S315080026082968384606F08AFD0146484606F07EFCE3
S3150800261833782860012B5A4A00F09B801378022BDE
S3150800262800F09780614B5C4A1B686149A2FB03323C
S315080026380B68D8F8000003EB5213984226BF1846D1
S315080026480B600860FEF730F922685A4BA3FB0213A1
S315080026589B0803EB8303D31A1DD1574A57491268B7
S31508002668574F02EB82025200A1FB022142F2107078
S31508002678544A3D681268C909B1FBF2F2524E3F68DE
S3150800268831683760691A00FB01F1B1FBF2F24F486D
S315080026984F4902600B60236801332360BDE8F8835D
S315080026A89A4238BF02F1FF32D31A2A78022A0DD97C
S315080026B8484A93420AD9DFF83C81D8F80030002BFB
S315080026C851D00220FFF710FE324C76E72B78022B02
S315080026D826D82B78012B0ED1D8F80030DFF81481CC
S315080026E83B602C4C69E7304B00221A609AE7FDF7E5
S315080026F8CDFF284CA8E7DFF8FC80264C5DE736496D
S315080027083648096800888842BFF440AF0423082180
S3150800271833482B70DFF8DC8005F08AFB1D4C4CE744
S31508002728304B314A1B6812889A42D2D2DFF8C480E5
S31508002738D8F80030002BD4D00120FFF7D5FD154C6A
S315080027483BE7D8F80030102125483B6000F0A6FF83
S3150800275831E7264B1D6806F0BDFE2946FFF776FECB
S31508002768FEF7C8F85EE7FFF7DBFD0A4C25E700BF6A
S315080027787C2500204425002090130020542500209D
S3150800278874130020981300202425002048250020CB
S31508002798041400208C1300201F85EB51B813002061
S315080027A8842500209C130020AC130020EC1200207E
S315080027B8C40A0020CDCCCCCC80020020D34D6210B0
S315080027C808140020FC13002078130020701300203A
S315080027D80014002020A10700E0120020DC120020C7
S315080027E8000C0140D8120020D412002094130020AF
S315080027F860250020CC0A002008B54FF4803005F083
S3150800280805FA00B908BD0420FFF76EFD0821064839
S3150800281805F010FB0448102105F00CFBBDE808403C
S315080028284FF4803005F000BA000C01402DE9F84352
S31508002838DFF8E0802D4DD8F800602C6D7768D6F85B
S31508002848C0202B4B042F20461A704FF0000128BFD2
S31508002858002706F015FE00B900242649204606F08A
S3150800286805FE00B9234CB06D06F000FC0146224867
S3150800287806F008FD214BDFF8A0901860204604F002
S3150800288823F8D8F800601E4B77602C65B46F18607B
S3150800289804FB04F006F0EAFBD5F88C1006F03EFCBB
S315080028A80746204606F0E2FBD5F8881006F036FCFF
S315080028B80146384606F02AFB32694FF47A7303FB59
S315080028C802F3104AF468A2FB03230F4E0F4ADB09EA
S315080028D8C9F800003360D5F8A8004FF07C51146099
S315080028E806F01CFC0A4B1860BDE8F883F0090020BE
S315080028F86C130020000096428096184CB8130020E6
S31508002908A0130020D34D621088130020A8130020B6
S315080029189C130020C8000020B0130020F8B5FFF764
S31508002928E3FDFFF783FF0D4B0D491B680D4AA1FB15
S31508002938031312680C4817790C490D4ADB09077006
S31508002948013BF026002507242020536081F82360E0
S315080029589560146081F82300F8BD00BF8002002046
S31508002968D34D6210C80000207413002000ED00E063
S3150800297810E000E0F0B583B002AC0A4F0A4E44F8FE
S31508002988040D14F8015B284600F0C8FC387833783B
S315080029982844C0B20344337002AB9C423870F0D165
S315080029A803B0F0BDEA130020DC130020034670B517
S315080029B80E4DC6B282B030460D4CADF8063000F062
S315080029C8ADFC2B78227833449DF80760DBB21A44AD
S315080029D830462B70227000F0A1FC28782378304402
S315080029E8C0B203442870237002B070BDEA130020F1
S315080029F8DC1300202DE9F04F464F83B0464E3D467E
S31508002A08DFF818810FE0B8F800A0444ABAF1000FB9
S31508002A183FD1434B18889B46002858D100F07EFCC6
S31508002A28387800F07BFC338833B9B8F800301BB91E
S31508002A383B4B1B88002B6AD03A4800F0ABFC3A4C53
S31508002A48B6F800B04FF0000A84F800A087F800A08E
S31508002A58DFF8C490BBF1000FD5D0032000F05EFC68
S31508002A68237829780333DBB21944FA2023702970AE
S31508002A7800F054FC23782978063BDBB21944B9F8E8
S31508002A88000023702970FFF791FFA9F800A02078A5
S31508002A98C4E70320019200F041FC23782978033320
S31508002AA8DBB21944FB202370297000F037FC237821
S31508002AB82978019A053BDBB21088194423702970D6
S31508002AC8FFF774FF019A2078A2F800B0A6E7052058
S31508002AD800F024FC23782A780533DBB21A440F2041
S31508002AE823702A7000F01AFC23782A780F33DBB291
S31508002AF81A44BBF8000023702A70FFF757FF0B4BE0
S31508002B081888FFF753FFABF800A0207886E703B0CC
S31508002B18BDE8F08FDC130020DE130020E213002046
S31508002B28E4130020B0A00008EA130020E6130020EA
S31508002B38F8B5184D184C287800F0F0FB207800F006
S31508002B48EDFBFFF757FF154B1E7826B114490022EF
S31508002B580A601A70F8BD134800F01CFC124B267060
S31508002B681F782E70384600F0D9FB2B780F49227843
S31508002B780E783B44DBB21A4430462B70227000F0BC
S31508002B88CDFB287823783044C0B2034428702370D4
S31508002B98F8BD00BFEA130020DC130020E01300206C
S31508002BA8C0130020B4A00008E8130020DB13002097
S31508002BB82DE9F041A14C23780F2B00F21881DFE8A4
S31508002BC813F0150020004900320044005900160188
S31508002BD862008D00A0001601AD00B1001601D600EE
S31508002BE80801974B01221A70FFF79AFB6378A078B9
S31508002BF8944943EA0023944A0B8013687BB1BDE8DD
S31508002C08F081924B1B78002BEBD06378A07890491B
S31508002C1843EA00238C4A0B801368002BEFD1BDE8E2
S31508002C28F041FFF7E7BED4F8030006F053FC012885
S31508002C38824C00F0F680022800F0E880002840F070
S31508002C48D680FDF7CBFC6378D1E70620FFF74CFB67
S31508002C586378CCE77D4B1B78012BD6D8A2786378A6
S31508002C687948784C7B4943EA02230022238002608C
S31508002C780A70D4E7D4F80300FFF7B6FB6F4C6378FD
S31508002C880028C3D0B3E7744B0021586906F0DAFB6D
S31508002C980028BAD1D4F803507049284606F0E6FB4E
S31508002CA800B96E4D6E49284606F0EAFB00B96C4D28
S31508002CB86C4E3378012B03D0FFF7C2FB0123337020
S31508002CC8284606F02DFC6378A5785E49664C43EAE3
S31508002CD805235D4A20600B8013688FE75B4B1B78DA
S31508002CE8012B92D8D4F80750D4F8030006F018FC3C
S31508002CF82946524DFDF73CFB002886D06B78A87804
S31508002D0876E7524B1A78002A3FF47FAF1B78012BD7
S31508002D183FF67BAFFFF740FB637868E7FFF75CFB96
S31508002D28637864E7D4F8030006F0FAFB002861D054
S31508002D38B0F57A7F7CD84FF4FA63B3FBF0F3424ACE
S31508002D486428136085BF3222B0FBF2F20122D2B2A0
S31508002D584649474F474D087800263A702E7000288E
S31508002D684DD145480425012205700A7047E0D4F874
S31508002D7803504FF083412846304E06F06DFB002875
S31508002D883FF443AFD6F807604FF08341304606F064
S31508002D9863FB00283FF439AF284606F0C1FB804696
S31508002DA8304606F0BDFB314F334A00231D461E4602
S31508002DB802F808003B70013A012312F8011F00299E
S31508002DC862D0DEB20133112B4FF00105F5D13E7002
S31508002DD80CE72A48FDF7D2FA6378A5782849294CDA
S31508002DE843EA0523184A20800B80136806E7164B22
S31508002DF81B6803E7144B1F4A01211B681170A0784A
S31508002E086278104942EA00220A80F7E6FDF7CEFA08
S31508002E186378A2780C480B4943EA02220A800368B9
S31508002E28ECE6FDF77BFB637800283FF4EFAEDEE6B9
S31508002E38054A0223136014228AE700BFC813002034
S31508002E480C140020DE130020C013002004140020F0
S31508002E58E213002084130020F009002000401C46D5
S31508002E680000C8427413002094130020DB130020C6
S31508002E78E8130020E0130020EC130020CB130020F1
S31508002E88E4130020E6130020002D3FF4AFAE3E7091
S31508002E98ACE600BFF8B5294C294E2A4D00F056FA7B
S31508002EA8E8B1277800F060FA032FC0B206D833785D
S31508002EB82A780344DBB21A4433702A702378052B20
S31508002EC807D8DFE803F0150D2A1A32032B78834250
S31508002ED831D00023237000F039FA0028E1D1F8BD73
S31508002EE87128F6D1002302222B7033702270D5E799
S31508002EF84128D3D101232370D0E7134A134F1178F9
S31508002F083F784B1CDBB2DFF848E09F4201F80E0019
S31508002F181370C3D104232370C0E70C4F0A4A002153
S31508002F280323387011702370B8E733788342D0D1F9
S31508002F3805232370B2E7FFF73BFECAE7E113002033
S31508002F48E9130020BC13002048080020490800207F
S31508002F58C81300202DE9F041FFF79CFF624B634E2A
S31508002F681A68336852B3B3FBF2F102FB11322ABB73
S31508002F785F4C604F04F1100514F8013FA3B1013BFB
S31508002F880E2B0FD8DFE803F0847A8E896A625B54C1
S31508002F984A433C352E1E0800574B187806F066F843
S31508002FA8FFF7E8FCA542E7D1544C554A236812783E
S31508002FB801339342236000F091803368013333600C
S31508002FC8BDE8F0814F4A504B504912681B6808689B
S31508002FD81344184406F04AF84D4906F09FF8FFF7D7
S31508002FE8C9FCDFE7494B186806F040F8FFF7C2FC4A
S31508002FF8D8E7454B186806F039F8FFF7BBFCD1E760
S31508003008404B186806F032F8FFF7B4FCCAE7414B9C
S31508003018187806F02BF8FFF7ADFCC3E73E4B18689F
S31508003028A7FB0030400906F021F8FFF7A3FCB9E72B
S315080030383A4B188806F01AF8FFF79CFCB2E7384BA3
S31508003048186806F013F8FFF795FCABE7354B1868D0
S31508003058400806F00BF8FFF78DFCA3E7324B186813
S3150800306806F004F8314B8046186805F0FFFF01465C
S31508003078404606F007F9FFF77DFC93E72C4B1868DE
S3150800308805F0F4FF2B4906F049F8FFF773FC89E7C2
S31508003098294B1868FFF76EFC84E7284B1868FFF772
S315080030A869FC7FE7204B186805F0E0FF1F4B804650
S315080030B8186805F0DBFF0146404606F0E3F81C4BA6
S315080030C88046186805F0D2FF1A4906F027F801461F
S315080030D8404606F023F8FFF74DFC63E7FFF728FD9F
S315080030E800223368226069E7C0130020C413002051
S315080030F8EB1300201F85EB51F1120020440800202D
S31508003108E81300205C250020642500208825002077
S31508003118ABAAAA3E041400207013002076250020C6
S31508003128C00A002070250020C40A0020EC120020DE
S31508003138901300206F12833A98130020AC130020CE
S315080031482DE9F84FFDF74AF84FF4407004F004FBF0
S315080031580821434800F08EFA1021414800F08AFAFF
S315080031684FF400413E4800F085FA00F0EFFAFDF703
S3150800317819FA00F025FFFEF7CBF800F09BF9FFF7E0
S31508003188CDFBFFF77DF80020FFF7AEF80024354B96
S3150800319820461C70FDF7AEFB6421C820FDF75EFDCE
S315080031A864214FF49670FDF759FD64214FF4C870F1
S315080031B8FDF754FD64214FF4FA70FDF74FFD6421BD
S315080031C84FF4C870FDF74AFD64214FF49670FDF771
S315080031D845FD6421C820FDF741FD0821204804F073
S315080031E827FE10211E4804F023FE1F49DFF88CA08D
S315080031F80B68DFF88C9043F080734FF6FF700B600E
S3150800320857462146C846194A194E1368194D43F0B8
S315080032180103DFF870B01360CAF800003368013399
S315080032283360D9F8003099420AD0D8F80030DB075D
S3150800323806D4114B1B7883B9FEF714FFD9F800108A
S31508003248DBF800002B68041B23442B60DAF80030EF
S315080032589C4200D23C600446E0E7FFF77BFEEDE7B8
S31508003268000C01400C140020FCED00E0001000E002
S31508003278081400200014002084130020FC130020E2
S315080032888C130020041000E0094B80B4094A0A4D43
S315080032980A480B494FF400071F614FF4803600238C
S315080032A84FF4003416612B60146103600B60FEE767
S315080032B800080140000C01406C8021427C802142B4
S315080032C88C80214208B5FFF7DFFF00BF08B5FFF776
S315080032D8DBFF00BF08B5FFF7D7FF00BF08B5FFF744
S315080032E8D3FF00BF41F2040130B40A4A0A4802F57E
S315080032F88054535824689D189C428EBFE31A0024AC
S31508003308C3F58053C560436054500348012130BC57
S3150800331804F012BC101400204400024010B40949F5
S31508003328C0B201F580521368074CC85421680133A6
S31508003338C3F30B031360CB0701D510BC704710BC49
S31508003348FFF7D0BF101400204400024041F21012C3
S315080033580349044B88585B68C01A18BF0120704790
S31508003368101400205800024010B441F2101441F21B
S315080033780800074A1359C3F580711144013B085CD4
S3150800338808BF4FF480731351C0B210BC704700BF12
S315080033981014002010B50446007828B1FFF7BEFFC0
S315080033A814F8010F0028F9D110BD00BF70B51D4DDE
S315080033B882B0AB6801A913F4807419D003221823C4
S315080033C828464FF400748DF806208DF80730ADF8B6
S315080033D8044004F0C7FC4FF48062482301A9284634
S315080033E8ADF804208DF8073004F0BCFC02B070BDB7
S315080033F80322042328464FF400768DF806208DF814
S315080034080730ADF8046004F0ADFC4FF4806301A9F9
S3150800341828468DF80740ADF8043004F0A3FC02B03E
S3150800342870BD00BF0008014070B584B04822032368
S315080034384FF48076694615488DF803208DF80230D2
S31508003448ADF8006004F08EFC0821002004F02AFD7F
S3150800345800251023012402A88DF80D3002968DF850
S315080034680C508DF80E4004F08BFB042317220DEB45
S3150800347803008DF806508DF807408DF804208DF85E
S31508003488053004F073F904B070BD00BF00080140A8
S3150800349808B54FF4807004F0B9FB00B908BD044BB1
S315080034A84FF480725A61BDE80840FFF77FBF00BF36
S315080034B8000401402DE9F04F8DB000240125FFF7DF
S315080034C8B3FF4FF0020AFFF771FF0E2368468DF81F
S315080034D800308DF801A08DF802408DF8035041F2AE
S315080034E80C1704F043F941F2081141F20400384E6A
S315080034F8384B06F580521B68F4513450364F7450D1
S3150800350814609B68DFF8D88001A90C223846019315
S31508003518ADF80E20ADF80840ADF80A40ADF80C40F5
S31508003528ADF8104004F04CFF404604F051FA2B4A17
S31508003538DFF8B0B04FF4805340464FF0800901A930
S3150800354802920A934FF480722023099304920594F1
S31508003558079408940B940394CDF804B0CDF8189002
S3150800356804F0CAFA4046294604F0E6FA2A464021F3
S31508003578384604F091FF404604F0F4FA41F2101375
S31508003588A8F11408F050404604F022FA102301A9BD
S3150800359840460393CDF804B005940794CDF81890DF
S315080035A80894099404F0A8FA2A465146404604F0B5
S315080035B8CFFA49462A463846C8F8044004F06CFF4C
S315080035C82946384604F05AFF0DB0BDE8F08F00BF0B
S315080035D810140020C80000200038014018240020D4
S315080035E8580002400438014008B54FF4005004F06A
S315080035F8BDFA0021084804F09FFA41F20401074B76
S3150800360803F5805212685B589A4203D0BDE8084011
S31508003618FFF768BE08BD00BF44000240101400202A
S3150800362810B5124B84B01A689368B3F5165F19D3A8
S31508003638B3F5612F03D94FF461210B469160002237
S315080036480C2469460A480093ADF80420ADF806200C
S31508003658ADF80820ADF80C20ADF80A4004F0B0FE25
S3150800366804B010BD4FF416539360E8E7C80000206D
S315080036780038014030B505460C4683B004F0DAFB3D
S3150800368803221023284601A9ADF804408DF8062020
S315080036988DF8073004F066FB03B030BDC36859409F
S315080036A8C160704741F62900704700BF4FF0804354
S315080036B80A499A8C0B8892B293420BD90848038810
S315080036C801339BB20380074842EA03430360006854
S315080036D80A807047024B1B88F5E700BF4C08002094
S315080036E84A080020242500204FF08042938C9BB27C
S315080036F803EB400080B2834206D84FF08042938C91
S315080037089BB29842FBD87047938C9BB29842F4D2E6
S31508003718938C9BB29842F7D3EFE700BF4FF08042ED
S315080037289389104623F002031B041B0C938102217C
S3150800373804F042BE4FF080429389104623F00403F2
S315080037481B041B0C9381042104F036BE70B588B09F
S31508003758002501261C2368468DF800308DF801607F
S315080037688DF803608DF8025004F000F84FF0804099
S3150800377804464FF6FF72232301A9ADF80820ADF8D1
S315080037880430ADF80A50ADF8065004F05BFCA3897E
S31508003798204623F002031B041B0CA381022104F014
S315080037A80BFEA389204623F004031B041B0CA381E4
S315080037B8042104F001FEA389204623F008031B040C
S315080037C81B0CA381082104F0F7FD04A804F09EFD4C
S315080037D8202304A92046ADF81030ADF81260ADF8DC
S315080037E8185004F081FC2946204604F0B5FD04A9C2
S315080037F8204604F0C1FC2946204604F0B5FD04A974
S31508003808204604F0FFFC2946204604F0B7FD314659
S31508003818204604F093FD3146204604F081FD08B0A1
S3150800382870BD00BF022830B412D94FF6FD750E4C8C
S315080038384FF080432160998C6260084480B298866C
S315080038481D829A8992B242F002029A8130BC704768
S315080038584FF08044A389104623F002031B041B0C6F
S31508003868A38130BC084700BF28250020022870B469
S3150800387812D94FF6FB764FF080439C8C0C4D0444C6
S31508003888A4B21C871E829C89A960A1B241F00401D2
S315080038989981EA6070BC70474FF08044A389104646
S315080038A823F004031B041B0CA38170BC084700BF44
S315080038B82825002010B502214FF0804004F070FD3D
S315080038C8E8B904214FF0804004F06AFD30B90821B0
S315080038D84FF0804004F064FD10BB10BD4FF6FB7333
S315080038E84FF0804213829389164923F004031B0478
S315080038F81B0C93818B68C868BDE8104018474FF6BB
S31508003908FD734FF08042138293890E4923F0020310
S315080039181B041B0C93810B684868BDE810401847C0
S315080039284FF6F7734FF0804213829389054923F0BF
S3150800393808031B041B0C93810B694869BDE81040F2
S31508003948184700BF2825002062B6704772B6704728
S315080039582DE9F04F454BDFF834C11B68BCF8000069
S315080039689B0900F1010E734501D93F2843D901384F
S3150800397883423ED2012B3CD9DFF804B1BBF800E0FC
S31508003988704571466BD94FEA4E03DFF8F880384F11
S31508003998DFF8F4909C1EFA18444408EB4E054B448D
S315080039A835F8026FB2F802A0013124F8026F5E8872
S315080039B8814222F802AB23F8026BF1D180B2864520
S315080039C8ACF8000003D100239E46ABF80030294D19
S315080039D8294C2A4838F81E3029682268C91A37F83F
S315080039E81E70036839F81E60D21B9B1B296022606B
S315080039F80360BDE8F08F224B1E4DB3F800802149BD
S31508003A082C6831F818A01C4F1C4B194A1E4E5444F2
S31508003A182C6032F818903D681C6836F818A04D4492
S31508003A28544480453D601C6015D243009C1C1A44CA
S31508003A380C44334401EB400131F8027D32F8026C3C
S31508003A4833F8025C0138804524F8027D22F80269B9
S31508003A5823F80259F0D1ACF800E0BDE8F08FDFF89A
S31508003A682480034FDFF82090A8E700BF70250020C0
S31508003A78F00800205C250020642500208825002001
S31508003A884E080020700800207009002076250020BE
S31508003A9810B5044603F0D8FE204603F0DBFE0028DE
S31508003AA8FAD1204603F0DAFE204603F0DDFE0028A8
S31508003AB8FAD110BD024A034BC1031160186070475A
S31508003AC884250020702500202DE9F84FFFF73EFFD2
S31508003AD8FFF7ECFD0746FFF737FF9F4B1B689B0769
S31508003AE840F1A2809D489E4B018A828A1C680A4436
S31508003AF81968A4EBC232A1EBA21200F110081A60E9
S31508003B08954A0721974B51601B78032B00F08A804A
S31508003B18DFF89CE2DEF80030002B75D19249934B0A
S31508003B28B1F800C01E880CF1010393FBF6F2B8F849
S31508003B380C0006FB1233B8F80840B8F80290B8F833
S31508003B4806508B4A0444B8F80AA0B8F80E004D4443
S31508003B58DFF8609222F81C505044DFF85CB2DFF8B0
S31508003B685CA20B809BB232F81310DFF85482D9F89E
S31508003B7800202BF81C402AF81C00DFF848C23BF83E
S31508003B8813B0521AD8F800103AF813A0DCF8003027
S31508003B98CBEB010115440C44CAEB0303184405EBA7
S31508003BA8040B00EB0B03B3FBF6F35A2BC9F80050CA
S31508003BB8C8F80040CCF8000034D96E4B1B788BB394
S31508003BC8DFF80482DFF80492D8F800309F42D8F864
S31508003BD8003034BF6FEA030CC3EB070CD9F8003082
S31508003BE838BFBC449C451DD9634B1A7852B3221872
S31508003BF8B5EB520F2AD8614A002192F900201970AC
S31508003C088A4232DD032231E0DEF800305C4A9F4200
S31508003C18DEF80030126836BFDB43FB1ADB1993421D
S31508003C283FF67CAFBDE8F88F4C49564B0C888A8816
S31508003C381868884622441968A0EBC232A1EBA2127A
S31508003C481A605DE72218B5EB520F5ED24E4B054453
S31508003C581A78002A4DD1B4EB550F5FD3474A01218C
S31508003C6892F900201970002A66DD0422474B1B6862
S31508003C789C45D7D94649474B0968474C8C4528BFC0
S31508003C888C4619681868C1EBCC3C00EBEC01196046
S31508003C981B684248DB1323600021414B0270CEF8AB
S31508003CA800102168188823680236B3FBF0F306EB80
S31508003CB8460206EB8206C3EB510006EBD676226867
S31508003CC8A0EB66003749FFF7ADFDC8F80070FFF7A7
S31508003CD83FFE2C49344A23680C68106803EB4303F3
S31508003CE89B088442C9F800309CDD0B681360BDE860
S31508003CF8F88FB4EB550F11D8204A002192F9002005
S31508003D0819708A4226DD0122B0E71C4A012192F978
S31508003D1800201970002AF6DD0622A7E7234B1A7831
S31508003D2862B1B0EB5B0F3FF67DAF144A002192F9FA
S31508003D38002019708A42EFDD052297E7B0EB5B0F82
S31508003D48FFF470AF0D4A012192F900201970002A74
S31508003D587FF758AF022289E7000002405008002082
S31508003D687C250020741300204E08002076250020A4
S31508003D78700800200414002050250020B80A0020E6
S31508003D886825002060250020802500208C25002035
S31508003D98402500208425002070250020F1120020E7
S31508003DA858250020110D00086C25002074250020D0
S31508003DB8C80A00205C250020F008002070090020A9
S31508003DC8642500208825002048250020782500201D
S31508003DD82DE9F04F674B684CD3F800B085B0DBF88F
S31508003DE83090D4F84080B9F57A7FE56B676BA66B97
S31508003DF85BD8B9F1130F00F2A480604B60494046BE
S31508003E0801934FF0140905F045FB002857D0022303
S31508003E18DFF86C8102935B49284605F03BFB82462E
S31508003E2800285ED10021284605F016FB002840F038
S31508003E389F802946284605F069F805F071FB52491E
S31508003E488246384605F026FB002853D04FF47A7385
S31508003E584D4F03934D49304605F01CFB002857D1B2
S31508003E684B49304605F0F8FA002879D0484E4FF401
S31508003E78FA6CCBF83090DFF844E14649C4F840803C
S31508003E88E5636763A663019C4348444A444BCEF8F6
S31508003E980040C1F800A0BDF80840039904801160E5
S31508003EA8C3F800C005B0BDE8F08F3E4B4FF47A79E9
S31508003EB801933349404605F0EDFA0028A7D13A4957
S31508003EC8404605F0C9FA00282ED04FF416732D4936
S31508003ED82846029305F0DEFADFF8CC8082460028E9
S31508003EE8A0D0284D4FF0C80A2749384605F0D2FA17
S31508003EF80028ABD12D49384605F0AEFA60B128231B
S31508003F0822493046294F039305F0C4FA0028A7D05A
S31508003F1849F6404C1D4EACE73946384604F0F6FFDC
S31508003F2805F0FEFA039095E72149404605F0F6F8AC
S31508003F380146144805F0A6F905F0F2FA83B2029389
S31508003F4869E740F26D2000FB09F005F08FF819497A
S31508003F5805F098F90146184805F094F90190A8E77C
S31508003F683146304604F0D2FF05F0DAFA844680E78F
S31508003F780025B9E7C8000020F0090020B40B2A324A
S31508003F880000F0410000C8420000FA4300409C4681
S31508003F9800007A4468250020582500208C25002032
S31508003FA84025002095A8592FCDCCCC3D0000A0412E
S31508003FB85555D53F00401C466032533254250020DB
S31508003FC8F0B57F4C93B0FFF703FF7E4B204640229F
S31508003FD81A8003F0FDFC7C4A7C4B80214FF4007E56
S31508003FE80827002620460792089320224FF44053B4
S31508003FF80C914FF4006507A9CDF834E0109309969B
S315080040080B9611960E950F920A9703F075FD0122E5
S315080040182046062103F09CFD07206D4D03F0A6FDFA
S3150800402820460121012403F087FD0B2301A88DF8FA
S3150800403806608DF804308DF805408DF8074003F0C2
S3150800404895FB28460DEB07014FF480324FF46023A1
S315080040580596029204938DF80C408DF80D408DF85C
S31508004068187003F0B9FB234622462846052103F0B3
S3150800407809FC234628460222052103F003FC2346A9
S3150800408828460322022103F0FDFB2346284604227C
S31508004098022103F0F7FB234628460522042103F0EC
S315080040A8F1FB234628460622042103F0EBFB2346A8
S315080040B8284607220221474E03F0E4FB23463A46E0
S315080040C82846022103F0DEFB2146284603F0B2FB08
S315080040D80DEB0701304603F07FFB234622462146AF
S315080040E8304603F0CFFB234621463046022203F02A
S315080040F8C9FB032223463046114603F0C3FB234671
S3150800410830460422032103F0BDFB234621463046E8
S31508004118052203F0B7FB234621463046062203F05C
S31508004128B1FB234630460722032103F0ABFB23469F
S315080041383A463046032103F0A5FB2146304603F0EC
S31508004148EBFB2146284603F06BFB2846FFF7A0FC45
S315080041582146304603F064FB3046FFF799FC1E4AB1
S315080041681E4B1268214628461A6003F01BFC214696
S31508004178304603F017FC234622462846052103F055
S31508004188E5FB234622463046042103F0DFFB214699
S31508004198284603F0D1FB2146304603F0CDFB2846D6
S315080041A84FF4E04103F0C2FB30464FF4E04103F018
S315080041B8BDFB2146284603F05BFB13B0F0BD00BFE4
S315080041C808000240762500204C24014050080020AB
S315080041D800240140002801404025002078250020B9
S315080041E830B4084C80B2A0FB04455E2303FB005597
S315080041F8E30D43EA452304489B08A0FB033030BC7B
S31508004208000A70474023ED3F017C8E214DF66C026B
S31508004218034B03FB00F0A0FB0201C1F30F10704724
S31508004228204B0C0030B43C4B3C49186882B040F02F
S31508004238010018605D6800202940596019684FF424
S315080042481F0421F0847121F48031196019681A460F
S3150800425821F480211960596821F4FE0159609C608F
S3150800426800900190196841F48031196003E0009BB9
S31508004278B3F5A06F09D0136803F400330193009BC4
S3150800428801330093019B002BF1D0234B1B6813F4D1
S31508004298003318BF01230193019B012B06D0204B3D
S315080042A84FF000629A6002B030BC70471D4A1A4B3C
S315080042B81068194640F010001060106820F00300D6
S315080042C81060106840F0020010605A685A605A6810
S315080042D85A605A6842F480625A605A6822F47C1214
S315080042E85A605A6842F4E8125A601A6842F08072AC
S315080042F81A600B68084A9B01FBD51146536823F0D8
S3150800430803035360536843F0020353604B6803F092
S315080043180C03082BFAD1C2E7001002400000FFF888
S3150800432800ED00E000200240034B82B05B68DBB278
S315080043380193019BFEE700BF00ED00E008B5134AAC
S31508004348134B9A420DD2D04312490344084623F028
S31508004358030304330B4450F8041B984242F8041B21
S31508004368F9D10D4A0D4B9A420BD2D043034423F098
S315080043780303043311461344002241F8042B9942D7
S31508004388FBD1FFF74FFFFEF7DBFEFEE70000002034
S3150800439838080020A0A50008380800209025002025
S315080043A82DE9F84F044688461546002B5BD09946F2
S315080043B8064603E0B9F10109344654D004F088F8F2
S315080043C83378344618444178013601F0080101F07B
S315080043D8FF0C0029EED12D2B4ED02B2B4CD0002DBF
S315080043E855D1B9F1010F40F28B802378302B6DD067
S315080043F80A25207800260027EB17A14404F1010EA8
S3150800440815E0A0F13701002920DBA9421EDA05FBD1
S3150800441807F0A5FB06AB06FB0306B3441AEB010631
S315080044284BEBE177F145744610D01EF8010BA0F165
S3150800443830010929A0F1410A0EF1FF34E3D9BAF18E
S31508004448190FA0F16101DCD9192912D9B8F1000FA1
S3150800445801D0C8F80040BCF1000F2CD0704267EBB9
S315080044684701BDE8F88F55B34FF0000C0026002722
S31508004478ECE7A0F15701C6E7A3F12D0CBCFA8CFCB2
S3150800448801344FEA5C1C09F1FF39002DA9D0102D1B
S315080044980DD1B9F1010F0AD92378302BA9D1637840
S315080044A803F0DF03582BA4D1A9F102090234B9F1A4
S315080044B8000F9ED1DAE730463946BDE8F88FB8F1DD
S315080044C8000F19D0AC4600260027C2E7637803F028
S315080044D8DF03582B07D009F1FF3901340825B9F14C
S315080044E8000F86D1C2E7A9F1020902341025B9F1ED
S315080044F8000F7FF47EAFB9E700200021BDE8F88FEA
S31508004508B9F1000FB2D021783029E4D008464FF027
S3150800451801090A256EE700BF10B401E093B18AB114
S3150800452810F8013B11F8012BA3F16104192C01D8E5
S31508004538203BDBB2A2F16104192C9CBF203AD2B207
S315080045489C1AEBD0204610BC704700BF70B40244D2
S3150800455813E010F8013B11F8014BA3F16106192E77
S31508004568A4F161059CBF203BDBB2192D9CBF203CFA
S31508004578E4B21D1B04D11BB114B19042E9D1002540
S31508004588284670BC704700BF014640B100784B1CEE
S3150800459828B1581A13F8012B002AFAD17047704720
S315080045A82DE9F047DDF82090C2B1824688461F46B5
S315080045B8144606E0D2BF2C4604F1FF3406EB07087A
S315080045C864B1650807FB058650463146C847002882
S315080045D8A4EB0504EED13046BDE8F0870020BDE817
S315080045E8F08700BFB8B1B1B1AAB12DE9F00302F05E
S315080045F80306920810D062B30B4692008F18041F60
S3150800460853F8045B9F4244F8045FF9D11144024405
S315080046182EB9BDE8F00370470246002EF9D04FEAD6
S31508004628E67916F1FF3801F1FF3102F1FF3349F156
S31508004638FF390024002526462F4611F8012F013494
S3150800464845F10005464503F8012F77EB0902F2DB29
S31508004658DFE7920011440244DAE700BF38B132B105
S315080046680346C9B2024403F8011B9A42FBD17047B4
S3150800467888421EDA2DE9F0410446884616461D4644
S3150800468830270BE001284FF0300001D16B689847B6
S31508004698306801340130A045306008D028780028F1
S315080046A8F0D1AB681F70AB680133AB60F0E7BDE8C3
S315080046B8F081704788421ED22DE9F04104468846A3
S315080046C816461D4620270BE001284FF0200001D189
S315080046D86B689847306801340130A045306008D9BE
S315080046E828780028F0D1AB681F70AB680133AB6037
S315080046F8F0E7BDE8F08170472DE9F04F89B0CDE9BC
S3150800470804019DF84810002A0291139C9DF8500050
S31508004718C0F2B980982AA8BF98229246059A0499A1
S3150800472822F000420A4317D100F0DF00452808BFE7
S3150800473801221A60BAF1000F07D0234604EB0A01D2
S31508004748302203F8012B9942FBD1002304F80A30DA
S31508004758204609B0BDE8F08F06AADDE904019B46A4
S3150800476802F018F8DDE90667804689460022002324
S3150800477830463946CDE90089CDE9048904F0F6FAC8
S31508004788002800F08380DDE9005600220023284629
S31508004798314604F013FB002800F0DF80314600227A
S315080047A88D4B284604F07AF800228C4B06460F46AD
S315080047B804F0E6FA002800F0D080002501E0464615
S315080047C84F460022844B3046394604F067F80022E3
S315080047D8824B80468946013D04F0D2FA0028EED17C
S315080047E8029B04EB0A08CDE904674046002B00F053
S315080047F8BB80A146C845CBF800501FD3DDE9042382
S31508004808104619464FF0000A734B002204F046F882
S3150800481806AA01F0BFFF06460F46DDE90601CDE9FF
S31508004828046704F0D5FA303009F8010BC845304654
S315080048383946E9D2029B002B00F0828098F80020BE
S3150800484843460532D2B288F8002030213120029D2D
S3150800485805E013F8012C013B01321A701A78392A37
S3150800486867D9A3421970F4D81870DBF8002001320A
S31508004878CBF80020002DF1D1A04588BF88F8001094
S3150800488808F10108EAE74FF0000A47E704F19A0336
S315080048980546994603934CA3D3E90023304639467F
S315080048A803F0FCFF4AA3D3E9002303F045FE06AA52
S315080048B801F070FF0022484B03F0F0FF04F0B0FA4D
S315080048C8DDE9066730305FFA80F809F8018D304669
S315080048D8394600220023013504F048FA0028DAD0C0
S315080048E8039B4B456BD94B46621E04F1990101E0BF
S315080048F813F8018F994202F8018FF9D1039BC9EB86
S315080049080309A144029B04EB0A08002B7FF472AF43
S31508004918AA4604F1990343451AD9BAF1010A08F1D6
S315080049280108F8D1C845CBF8005087D3DDE900015E
S315080049386AE72046002388F8003009B0BDE8F08FFA
S31508004948BAF1000F3FF47AAF302384F89930FFE6BE
S31508004958C845CBF80050E9D2F6E7029B04EB0A08EB
S315080049685BB3A146002545E7444518D208F1FF334D
S315080049784219611E01E0994211D09A42984603F1FC
S31508004988FF33F8D1A045CBF80050FFF457AFDDE95F
S315080049980423A1464FF0000A1046194634E7BAF12F
S315080049A8000F05D02346302203F8012B8342FBD19A
S315080049B80023CBF800300370CAE6029DE2E7A14659
S315080049C8A0E700BFAFF300809A9999999999B93FDA
S315080049D8B81E85EB51B89E3F000024400000F03F02
S315080049E82DE9F04F0B78BDB00C4600210891002B35
S315080049F800F0358307468B461846924626460EE04B
S31508004A083B78002B00F08180012B01D17B68984701
S31508004A18089B013308937078013600287ED025282C
S31508004A28EED1002571780136A1F12003102B19D88B
S31508004A38DFE803F015181812181818181818180F98
S31508004A48180C1818090045F00805EBE745F00105A4
S31508004A58E8E745F00205E5E745F01005E2E745F021
S31508004A680405DFE73346002405E004EB840413F85D
S31508004A78011F02EB4404A1F13002092A03F1FF30B1
S31508004A881E46F2D92E294DD0682944D06C2942D021
S31508004A984C2940D0A1F14503332B00F22082DFE8E8
S31508004AA813F0A701A7011E021E021E021E021E02FD
S31508004AB81E021E021E021E021E021E021E021E02E0
S31508004AC81E021E021E021E025D011E021E021E0292
S31508004AD81E021E021E021E021E021E0241012F018E
S31508004AE81201A701A7011E021E0212011E021E02BA
S31508004AF81E021E020B01EF00B4001E021E028B00E6
S31508004B081E0251001E021E025D01BB681870BB68B2
S31508004B180133BB607CE781780136BBE708983DB06E
S31508004B28BDE8F08F18464FF0000B04E030460BEB53
S31508004B388B0B03EB4B0B4178461CA1F13003092B71
S31508004B48F4D9A1E7DAF800304FF000098DF830906B
S31508004B580AF1040A002B40F0048230238DF831301C
S31508004B684FF001090DEB030202EB090306932B0725
S31508004B786AD415F0010300F0BB813CAA4A4412F82E
S31508004B88C08CB8F1000F74D00593069D40460AE01C
S31508004B98012B01D17B689847089B15F8010D01334D
S31508004BA80893002861D03B78002BF1D1BB681870B0
S31508004BB8BB680133BB60EFE7DAF800800AF1040A3C
S31508004BC8B8F1000F3FF427AF4046FFF7DDFC15F0B4
S31508004BD80105814600F02D8298F8000060B948E082
S31508004BE8012B01D17B689847089B0133089318F86D
S31508004BF8010F002800F028823B78002BF0D1BB680B
S31508004C081870BB680133BB60EEE7DAF800304FF07E
S31508004C1800098DF830900AF1040A002B9DD00CAAD9
S31508004C2810461909A3EB0113092B94BF3033373300
S31508004C3800F8013F09F101090B460029F1D102EBF9
S31508004C48090306932B0794D53B46484608AA2146E6
S31508004C58FFF70EFD3CAB4B4413F8C08C05F0010377
S31508004C68A1460593B8F1000F8FD1059B002B3FF499
S31508004C78D2AE214648463B4608AAFFF71BFDCAE6B8
S31508004C88DAF800304FF000098DF830900AF1040A76
S31508004C98002B3FF462AF0CAA1046D908A3EBC10350
S31508004CA8092B94BF3033373300F8013F09F101095E
S31508004CB80B460029F1D157E7DAF80030089A0AF1C5
S31508004CC8040A1A60A7E6DAF800E04FF000090AF1C4
S31508004CD804038DF830900793BEF1000F40F05B810E
S31508004CE83CAB4FF0300803F8BF8D06934FF0010927
S31508004CF8AA0740F1AD8109F101094FF02B0A72E1C3
S31508004D083B780AF10404DAF80000002B00F08581E4
S31508004D18012B02D1C0B27B689847089BA24601338B
S31508004D28089378E6DAF800304FF000098DF83090E5
S31508004D380AF1040A002B3FF410AF0CAA10465908CA
S31508004D48A3EB4103092B94BF3033373300F8013FEF
S31508004D5809F101090B460029F1D105E7DAF800300F
S31508004D684FF000098DF830900AF1040A002B00F07C
S31508004D78CF800CAA10461909A3EB0113092B94BF77
S31508004D883033373300F8013F09F101090B4600298A
S31508004D98F1D102EB09032807069340F1C680E90614
S31508004DA840F19E813A78002A00F04C82012A00F0E8
S31508004DB80482089B01330893002A00F03B82012AE3
S31508004DC800F0F68101333CAA42F8D03D3B464846F6
S31508004DD82146FFF74DFC3CAB994419F8C08C05F001
S31508004DE801030593A146B8F1000F7FF4CEAE3CE760
S31508004DF80AF1070A2AF0070ADAE90089CDE90A89D1
S31508004E08BDF82E301BF0FF0208BF06221D040AF162
S31508004E18080A00F16B8100254FF0000E15AB0291C8
S31508004E28404649460193CDF800E009ABFFF764FC14
S31508004E388046FFF7A9FBE4B2201A099C431B002CFD
S31508004E4803F1FF3340F34F810CAA002BD8BF134652
S31508004E5806DD11461344202001F8010B9942FBD1BF
S31508004E68002D40F09480002C40F31E81013C0994E3
S31508004E7898F80040CCB1099908F10100013903E016
S31508004E8810F8014B013984B103F8014B4C1C099100
S31508004E98F6D1017849B12E241C70013301E010F8C7
S31508004EA8011F03F8011B0029F9D19DF830001446A3
S31508004EB860B9B0E5012B01D17B689847089B14F8BF
S31508004EC8010F0133089300283FF4A5AD3B78002B62
S31508004ED8F0D1BB681870BB680133BB60EEE73B7856
S31508004EE8002B00F0A080012B7FF492AD08468DE5D3
S31508004EF83B4608AA21464846FFF7DCFB069B93F87B
S31508004F080080B8F1000F3FF486AD002305933CE610
S31508004F1830234FF001090DEB03028DF831302807CD
S31508004F2802EB090306933FF53AAFEA0700F19B80BF
S31508004F3815F01003059300F00C8109F1020908AA77
S31508004F4848463B462146FFF7B5FB3A78002A00F063
S31508004F583981012A40F03D817B68302098473A78A4
S31508004F6837E10CAA9646B14909F10109A1FB0301E3
S31508004F78C90801EB8100A3EB4003092B94BF303322
S31508004F8837330EF8013F0B460029ECD1ECE52D2105
S31508004F981970013367E70CAA9446734600E08946F8
S31508004FA8A34981FB0310D917C1EBA00000EB8001C8
S31508004FB8B3EB41014CBFC1F1300130310CF8011F88
S31508004FC8034609F101010028E9D15318BEF1000F7B
S31508004FD8069380F2AD803CAB194411F8C08C09F1F0
S31508004FE802094FF02D0A2A0700F1888005F0010307
S31508004FF80593002B00F0BC803A78002A00F02A8135
S31508005008012A04D150467A6805939047059B089A61
S31508005018DDF81CA001320892B3E5BB681870BB68B6
S315080050280133BB6079E6BB681970BB680133BB609E
S31508005038EEE43B4608AA2146FFF73CFB98F8000031
S3150800504800287FF4D9ADE6E4002D3FF4E4AC10E679
S315080050586B0773D509F101094FF0200AC3E718460B
S315080050683DB0BDE8F08FEB0640F1FB803A78002AA0
S3150800507800F0CC80012A00F09680089B013308933B
S31508005088002A00F0BB80012A00F088803CAA4A441E
S31508005098013312F8C08C089309F102090123B8F103
S315080050A8000F7FF471ADE4E5194630202E2504F18A
S315080050B8010E002C01F8020BCDF824E05D7080F291
S315080050C8DD800B1B01F8010B8B42FBD101210991ED
S315080050D8013B18F8011B03F8011F0029F9D1E4E67A
S315080050E83B4608AA73E6013B2344ADE6C3F30E0321
S315080050F8ADF82E30DDE90A8901258DE63B78002BC7
S3150800510800F08C80012B45D0089B0133089348464C
S315080051183B4608AA214605F001050595A146FFF76D
S31508005128A7FADDF81CA0B8F1000F7FF42EAD9CE5B0
S315080051383CAB8946194411F8C08CD9E52907E6D449
S3150800514805F001030593002B00F09A80DDF81CA0F2
S3150800515817E53B4608AA21464846FFF7ABFA3CAB93
S315080051684B4413F8C08CB8F1000F7FF40EAD52E427
S315080051783B4608AA21464846FFF79CFA3B78002B87
S3150800518835D0012B02D150467B689847089B0133D6
S315080051980893C6E750467B689847B5E77B68782042
S315080051A89847089B72E77B68302098473A7864E7FF
S315080051B87B6878209847089B04E67B6830209847E0
S315080051C83A78F6E5BB6830221A70BB683A78013334
S315080051D8BB60089B01330893002A47D0012A03D1EC
S315080051E87B6878209847089B0133089386E6BB684E
S315080051F883F800A0BB680133BB60C7E7BB687822A1
S315080052081A70BA68089B0132BA603FE7BB68302251
S315080052181A70BB683A780133BB602EE7BB6883F817
S3150800522800A0BB680133BB606EE700BFCDCCCCCC11
S3150800523867666666BB6878221A70BA68089B013280
S31508005248BA60BFE5BB6830221A70BB683A78013382
S31508005258BB60AEE5BA6882F800A0BA680132BA60DF
S31508005268D5E63CAB4B4413F8C08C17E7BB687822E5
S315080052781A70BA68089B0132BA60B5E70B4627E781
S315080052883B4608AA21464846FFF714FA49E700BFED
S31508005298A0B10EB4034630B584B008AD00242A463A
S315080052A8079901A8039300958DF80440FFF798FB22
S315080052B8039B1C7004B0BDE8304003B0704700BFBC
S315080052C82DE9F04F4FF0000B0D460446D9465E46C9
S315080052D8D846A5B008920B784FF0FF320990CDF85A
S315080052E814B0CDF808B0CDF80CB0CDF810B00192CE
S315080052F84FF0010A6F1C53B3B9F1000F27D1B8F163
S31508005308060F00F2AB80DFE808F07D8C9EAC402AD9
S3150800531804005D2B00F0DE809B4511DA5846A64648
S315080053280DF1300C410900F01F025CF821400AFA19
S3150800533802F20130224383424CF82120F2D1744606
S315080053486B783D464FF005086F1C002BD4D1B9F190
S31508005358010F00F08D81029825B0BDE8F08F5D2B0E
S3150800536800F0BC802D2B00F02B8258090DF1300C6B
S315080053785CF8201003F01F030AFA03F341EA030254
S315080053884CF820206B783D46B4E75E2B00F0138274
S3150800539859090DF1300C5CF8212003F01F030AFAAD
S315080053A803F31A434CF821206B784FF005083D465D
S315080053B8A0E7099BE01A0246C317CDE90623039B13
S315080053C8DA0700F1C4843B4622462F461D4604994F
S315080053D800290CD041F380800499022901F07980CC
S315080053E8C1F275806FF00043994241F06A800899C6
S315080053F806980B68043118607B786F1C002BAAD0B6
S3150800540814460891252B40F0A8806B787A1C002B47
S31508005418A1D000213D4617464FF0FF32039104916B
S3150800542801922A2B00F0BE8151D3A3F13002092A32
S315080054384DD80192039A6B7842F0040203923D46CE
S315080054484FF0020856E7A3F13002092A3FD8019A15
S3150800545802EB820203EB4203303B01936B783D462D
S3150800546848E7A3F14C022E2A00F2B981DFE812F0C8
S315080054781801B701B701B701B701B701B701B701F5
S31508005488B701B701B701B701B701B701B701B70146
S31508005498B701B701B701B701B701B701B701B70136
S315080054A8B701B701B701B7018901B7011801B701F3
S315080054B89401B701B701B701B7011801B701B701D8
S315080054C89400B701B701B701B701B70194004FF0C7
S315080054D803080FE70D9B43F400530D93019B0B94A8
S315080054E8002B00F09383217891B324AA4B0902EB89
S315080054F8830353F8603C01F01F02D340059A03F072
